:020000040800F2
:1000000098040020553C00086D3A00086F3A00083B
:1000100000000000000000000000000000000000E0
:10002000000000000000000000000000733A00081B
:100030000000000000000000753A0008773A000850
:10004000131A0008CB2D00087B2F0008433400084A
:100050000F3C0008893A0008913A0008993A0008D4
:100060001B3C0008993C00089B3C00089D3C000894
:100070009F3C0008A13C0008A33C0008A53C0008E8
:10008000813A00080000000000000000A13A0008CA
:1000900000000000A73C0008A93A0008A93C00089D
:1000A00000000000AB3C0008AD3C0008AF3C00087D
:1000B000B13C000800000000B33C0008793A000899
:1000C0000121C206D20E91406D4A11607047F0B511
:1000D00040B2002821D56B4C40B20207120F083AFB
:1000E000950804225543674A40B203071B0F083B9B
:1000F0009B0804267343D258FF238607B60F0827B0
:100100007E43B3409A438B01DBB28607B60F0827C4
:100110007E43B340134363511AE0CC4A40B2830894
:1001200004246343D258FF238407A40F08256C439B
:10013000A3409A438B01DBB28407A40F08256C43CC
:10014000A3401343C14A40B2840804256C431351B1
:10015000F0BD38B500F098F800F0E0FB007800281A
:1001600028D000F0E3FB0400002500F0D7FB007866
:1001700040070CD5E21C20210E2000F060FC00F0AE
:10018000D7FB200000F0BBFB042005000EE000F0D0
:10019000C5FB0078800709D5E21C20210E2000F065
:1001A00016FCE01C00F012FB022005002800C0B283
:1001B00000F0B6FBC448008800073CD5C248008860
:1001C000800438D4A248406A00F0E4FCA14900F061
:1001D00015FD00F06BFD0400200000B200F046FEAB
:1001E000B94800889C490140B7480180C34800884D
:1001F00001210143C1480180B3480088C0061AD5D7
:1002000096480221405E95490022895E401A24B238
:10021000A04203DB002000F023F90CE024B28F4859
:100220000221405E8D490422895E4018844202DB2F
:10023000012000F015F9A4480088800612D5A248D4
:100240000088C00606D5A0480088082101439E48C2
:10025000018001E000F083FA9B480088AD4901402D
:100260009948018098480088000600D474E700F09F
:1002700073F995480088A8490140934801806BE7CD
:1002800000E100E01CED00E000B585B01120A349BD
:100290000860A3480068A02189030143A0480160C9
:1002A000A04800688021490401439E4801609D48A0
:1002B00000688001FBD59A4800680321884398496B
:1002C00008609748006802210143954801609448FE
:1002D00000680C2101400829F9D1934800688C215D
:1002E000C90301439048016000F0AEFE00F0EEFE4D
:1002F00000F036FB012802D0002000F0BBFAFF21FD
:10030000022000F0FCFD894800688021C9020143F9
:100310008648016086488749088087488749086081
:100320000120874908801620FFF7CAFE0021162009
:10033000FFF7CDFE00F0AEFA8249834801F0BCF829
:1003400001F0D3F96A4620210E2000F078FB6846C0
:10035000007802284BDB00206946087001206946BE
:1003600048700020C0B2042809DA784908224243C4
:1003700011416A46C0B212189170401CF2E7002089
:10038000C0B2022809DA72490822424311416A4682
:10039000C0B212189171401CF2E70020C0B20228CE
:1003A00009DA6C490822424311416A46C0B2121868
:1003B0001172401CF2E70020C0B2022809DA654938
:1003C0000822424311416A46C0B212189172401C81
:1003D000F2E70020C0B202280FDA5E490822424349
:1003E00011416A46C0B212181173401CF2E7364838
:1003F00000882021014334480180684600F0E6F976
:1004000031480088800612D502219020C00501F0F5
:10041000E0F8012805D12C480088102101432A4822
:100420000180294800883B4901402748018000F0AD
:10043000A5F900F0ACFD31480088012101432F48A7
:1004400001800120CC49088005B000BD00E400E037
:100450005C06002000002041F7FF0000900600200D
:1004600038B504001848058802200540EDB2002D7B
:1004700002D1E4B2002C05D0EDB2012D11D1E4B2CD
:10048000012C0ED11048008840071CD400F007FE54
:1004900000F03EFE0C480088042101430A48018018
:1004A00011E0EDB2002D02D1E4B2012C05D0EDB285
:1004B000012D08D1E4B2002C05D103480088400783
:1004C00001D500F04CF931BD9400002000B57C4905
:1004D000098820220A437A490A80C0B2002806D13E
:1004E00077490988B84A0A4075490A8005E0744985
:1004F000098810220A4372490A8000BD0048014061
:10050000D0490988C0B20202802313430B43CD496E
:100510000B807047DFFF00007FE0000000200240FA
:100520000410024000100240141002401810024053
:100530009F0F000028480140570200002C4801404E
:100540000C480140CD04000801050008901A000085
:1005500068100000FFFF000080B5594800880012B5
:10056000C006C00EC0B2002808D0012852D003280F
:1005700000D186E0042800D192E0A0E05048008835
:10058000800421D44E4800888021890101434C48D1
:100590000180AD480088AD490140AB480180002092
:1005A000AB49088000F0DBF81E21022000F0DDFCE2
:1005B000A8480221405E00F059FC41480088A64945
:1005C00001403F48018024E03D480088A3490140A4
:1005D0003B480180FF21022000F0C7FC9D48408875
:1005E000694608709B480221405E001269464870C7
:1005F0006A462C21022000F0EAF9314800880821DF
:1006000001432F48018090480088012101438E4812
:10061000018054E02A480088400612D500F09FF877
:1006200000F0C4FC00F0E3FF8748008887490140E0
:10063000854801802248008889490140204801807E
:100640001EE000F0A4FC00F0CBFF02219020C005CA
:1006500000F0BFFF012805D119480088102101438F
:100660001748018000F08AF81548008848210143A6
:1006700013480180744800880121014372480180B9
:100680001DE00F480088800409D572484088401E4C
:10069000704948806F480221405E00F0E7FB0EE0A1
:1006A00007480088800409D56A484088401C694989
:1006B000488068480221405E00F0D8FBFFE701BD9A
:1006C0009400002038B562480088604901406048C5
:1006D000018001F063F801F095F88221C90501F06D
:1006E000A0F8604908625F48406A5E49096801F005
:1006F00025F95C49096A01F0E9F80400200059492C
:10070000496A01F01BF9002101F070F902D2564943
:1007100000F074FAFE21890501F07CF91ED85149D8
:100720004C620021C9B208290CDA4E4AC9B204232E
:100730004B43D21852684B4BC9B204254D435A5112
:10074000491CEFE73F49098808220A433D490A80CE
:100750003D4909883D4A0A403B490A8031BD80B580
:1007600000F0A2FC00F0DCFC364800883F49014064
:100770003448018001BD00001448014038B5002014
:10078000384948620024E4B2082C1CDA01F006F86B
:100790000500ADB2280001F035F88221C90501F04D
:1007A00040F83049E4B20422624388502D48416A3F
:1007B0002C48E4B204226243805801F087F82949AA
:1007C0004862641CDFE731BDEFFF000038B504006C
:1007D0001C480088264901401A48018019480088B1
:1007E0002178084317490880607800F037FC00251D
:1007F0000020C0B2042809DAC0B221188978082282
:100800004243914029430D00401CF2E7A079E17971
:100810000902014389B2280000F0AAF9207A617A1E
:10082000090201430B480180A07AE17A09020143E1
:1008300008488180207B617B090201430548418093
:1008400031BD00009400002000480140FEFF000080
:100850001048014090060020F7FF0000FFDF000075
:1008600003C000005C060020000080BFFBFF00000A
:10087000FDFF000038B5040000F016FC0125E4B2CD
:10088000002C02D104200500FFE72800C0B200F0D0
:100890004EFCFEE780B52948006801210143274846
:1008A0000160274800681021014325480160254B5D
:1008B000254A2649264801F0C1F801BD00B50021AE
:1008C000C9B2402906DAC9B2425C224BC9B25A54B5
:1008D000491CF5E71F494978002908D001290DD1A5
:1008E0001D49097804220A431B490A7006E01A4987
:1008F000097802220A4318490A70FFE700BD10B5C3
:10090000040016480078002807D040222100104833
:1009100001F0A3FA00201149087010BD0E4870477D
:100920000D49097881430C4A117070470948704796
:1009300000B50A4800780128FBD100BD181002401C
:10094000000001407C000020200000204400002026
:100950009804002060050020D006002096000020AA
:1009600080B59020C00500688021C9050143902012
:10097000C00501607648008880210902014374485F
:10098000018074480068A821090101437148016091
:1009900071480068A821C90001436F4801606F4891
:1009A00000688021490101436C480160C520800036
:1009B0006B490880B82040016A490880684800886F
:1009C000402101436648018000F078F802BD70B50F
:1009D00004000D0016005E4800884004400C5C498D
:1009E0000880062000F0A2F85948008880210902FA
:1009F000014357480180564800884004400C544940
:100A00000880022000F092F8280080B2000AC0B2EC
:100A100000F08CF82800C0B200F088F8E4B2002C96
:100A200005D0307800F082F8761C641EF6E748485E
:100A300000888021090201434548018070BD70B5DE
:100A400004000D001600424800884004400C404954
:100A50000880032000F06AF8280080B2000AC0B2C3
:100A600000F064F82800C0B200F060F8002000F048
:100A70005DF83070761C641EE4B2002CF6D1344868
:100A800000888021090201433148018070BD10B502
:100A900004002F4800884004400C2D4908800520A0
:100AA00000F044F8002000F041F820702848008849
:100AB0008021090201432648018010BD80B500A8AD
:100AC000401CFFF7E4FF224800884004400C204906
:100AD0000880062000F02AF81D48008880210902BD
:100AE00001431B4801806846FFF7D1FF6846007844
:100AF00069464978884213D0012069460870144835
:100B000000884004400C12490880042000F00EF8D0
:100B10000F4800888021090201430D48018002E04E
:100B20000020694608706846007802BD00B50100E3
:100B30000D4800888007FBD50C4801700A480088E2
:100B4000C007FBD509480078C0B200BD0000000016
:100B5000140000480004004808040048181002402F
:100B60000030014004300140083001400C300140A9
:100B70001C4A10601B4A9180704780B501001A48DA
:100B800000F04FFE194900F0A1FE0100184800F0E6
:100B900048FE02BD38B504002000FFF7EEFF114902
:100BA00088601048006800F02DFE01000D48806844
:100BB00000F037FE01F095F905000A48808800F042
:100BC00021FE0100280000F02CFE0A4900F07EFE04
:100BD0000100FE20800500F024FE074900F076FEAB
:100BE00032BD00008406002000F07F45000080BF79
:100BF00000E092450FCF5B3B339388C330B40500D0
:100C00004D400122D20715404B180418240E2ED057
:100C10001B0E32D0FF2C34D0FF2B3AD0E418000248
:100C2000090210431143000A090A9446C2B24A431A
:100C3000000AC3B24B43000A4843110A5B181A4327
:100C4000D2B2190A091801D44918641E080A7F3C57
:100C500023DBFE2C08DAE4050906114363469941BB
:100C60006041284330BC7047FF20C005F9E72800E9
:100C70001B0EFF2BF6D1D043F4E72800FF2CF1D157
:100C8000F9E74002F7D1FF2B01D14902F3D1E0058A
:100C9000E7E7D8054902E4D0EDE743020020641CF1
:100CA000DFD15B129B1CDCD9D805DAE70122D20721
:100CB0000118090E7F3910D449421F310FD4001892
:100CC00005D2C0011043C84000D5D0437047C001D1
:100CD0001043C84005D4404270470020704700428E
:100CE000F3D51000704770477047704770477047E2
:100CF0000121C206D20E9140BD4A11607047F0B585
:100D000040B2002821D5A84C40B20207120F083A81
:100D1000950804225543A44A40B203071B0F083B21
:100D20009B0804267343D258FF238607B60F082773
:100D30007E43B3409A438B01DBB28607B60F082788
:100D40007E43B340134363511AE0AA4A40B283087A
:100D500004246343D258FF238407A40F08256C435F
:100D6000A3409A438B01DBB28407A40F08256C4390
:100D7000A34013439F4A40B2840804256C43135197
:100D8000F0BD00B59C4800889C4901409A4801800C
:100D90009B4800889B490140994801809A480088F7
:100DA0009A4901409848018099489A490978405CDD
:100DB00093490988984AC0B202234343D25A0A434E
:100DC0008F490A8093490978944A1278914228D130
:100DD00092498978012905D18949098810220A4355
:100DE00087490A808D494978FF291AD08B49C978EB
:100DF000491C8A4AD17089494978884AD2780B00BF
:100E0000DBB29A420DD30022844BDA70834A927887
:100E1000002A03D10122814B9A7002E000227F4B0D
:100E20009A707F497B4A1278895C08007649098864
:100E3000C0B20143744A118076490978491C754A49
:100E4000117074490978042902D10021714A117086
:100E500000BD00B50021C9B2042906DAC9B2425C5E
:100E60006B4BC9B25A54491CF5E700BD10B582B0AE
:100E7000040024B2002C06D50B206946087000201F
:100E8000C04344430EE024B22000FA21890001F05F
:100E900043F86946087068460078002802D10D20A2
:100EA0006946087024B22000FA21890001F034F864
:100EB0000C0024B22000642101F02EF8694648702D
:100EC00068464078002802D10D206946487024B257
:100ED0002000642101F020F80C0024B220000A2137
:100EE00001F01AF86946887024B220000A2101F046
:100EF00013F86846C1706846FFF7ABFF13BD38B5FD
:100F000004000D009020C005006846490143902070
:100F1000C0050160444800684449014342480160FB
:100F2000434800680221014341480160FF20E0304E
:100F300040490880FF2090303F49086001203F4928
:100F400008803B4800680221884339490860102026
:100F5000FFF7CEFE02211020FFF7D1FE2900C9B213
:100F60002000C0B200F001F831BD00B52B4A10706E
:100F70002A4A51700022294B9A700022274BDA70BE
:100F8000C9B2FF2902D10122244B9A7000BD284822
:100F90000068022101432648016029480088012198
:100FA00001432748018070471CED00E000202549DF
:100FB00008702348008811490140214801800E48EB
:100FC00000880E4901400C48018019480068022140
:100FD0008843174908600A4800880A4901400848C0
:100FE000018009480088094901400748018070478D
:100FF00000E100E000E400E010040040FEFF00001B
:101000001400004805FC0000140400483CFF0000E8
:1010100098060020CF060020CC3B00089C0600204C
:10102000903C0008445505000004004805500000AD
:101030001C100240280400402C0400400C04004016
:1010400000040040CE0600209020C00500688021EA
:10105000490301439020C0050160704700B5C0B24C
:10106000002806D11349144A11601449144A11602A
:1010700005E01249104A11600E49114A116000BD85
:10108000104800888021C90001430E480180704744
:101090000C4800880C4901400A480180704780B51F
:1010A00005480068804701BD80B505480068804755
:1010B00001BD000091100008A0060020811000086A
:1010C000A406002014000048FFFB0000364800681A
:1010D000802149020143344801603448006880217E
:1010E0008902014331480160314832490880682053
:1010F00031490880802000023049088001203049B1
:1011000008802A4800682F4901402848016070473C
:101110002D4800888021490001432B4801807047F9
:10112000294800882949014027480180704730B587
:101130000400E4B2002C36D02548E4B2210000F0CF
:10114000EEFE050020480088204901401E4801802D
:10115000154800681F4901401348016012480068A3
:10116000802189020143104801601B480068022168
:101170000143194801600D4800688021890201433C
:101180000A480160ADB2681E14490860ADB228007B
:10119000022100F0C1FE12490860124800880121B6
:1011A00001431048018030BD00040048181002407F
:1011B0009F0F00002844014018440140444401406E
:1011C00020440140FFFFFDFF14040048FFFE000023
:1011D000E02E0000FFFFFCFF240400482C440140E7
:1011E00034440140004401400121C206D20E914026
:1011F000A44A11607047F0B540B2002821D5A24C36
:1012000040B20207120F083A9508042255439E4A3D
:1012100040B203071B0F083B9B0804267343D258B8
:10122000FF238607B60F08277E43B3409A438B01FE
:10123000DBB28607B60F08277E43B34013436351E2
:101240001AE0924A40B2830804246343D258FF2331
:101250008407A40F08256C43A3409A438B01DBB29B
:101260008407A40F08256C43A3401343874A40B268
:10127000840804256C431351F0BD38B584480088B8
:1012800084490140824801808348008881490140A7
:101290008148018000240025EDB2052D48DA7F4801
:1012A000EDB20C216943405C01283FD17B48EDB28F
:1012B0000C216943401841787848EDB20C226A430A
:1012C0008018406800F085F97449EDB20C226A4339
:1012D0008918097AC0B2884215D1EDB2022D09D120
:1012E0006E48EDB20C2169434018007A6C490968D8
:1012F000884708E0E4B2002C05D12C002800C0B2D9
:1013000068490968884700206449EDB20C226A43A5
:101310008854654801680120604AEDB20C236B4394
:10132000D2185278904008435F4908606D1CB3E7BB
:1013300000205E490860B14800685D490140AF483F
:10134000016031BD30B50021C9B205291BDA594A07
:1013500013680122514CC9B20C254D4364196478BD
:10136000A2401A4001234D4CC9B20C254D436419CB
:101370006478A3409A4204D1C9B2022901D008007E
:1013800001E0491CE0E74B4909680122434BC0B228
:101390000C2444431B195B789A400A4345490A6070
:1013A0003D49098889B2C90726D43F490968012205
:1013B0003A4BC0B20C2444431B195B789A409143CA
:1013C000394A11600021354AC0B20C234343D21878
:1013D00011720121314AC0B20C234343D1548749D1
:1013E0000968802252000A4384490A602A49098810
:1013F00001220A4328490A8030BD80B52A48006886
:101400000121264A527E9140884327490860294895
:1014100000680121214A527E914001432548016024
:101420001E48417E1D48C06900F0D3F87449087019
:1014300001201A4908761848008880B2C0070DD4E8
:101440006E4800688021490001436C4801601248E1
:101450000088012101431048018011E00E480088F6
:101460000C4901400C480180002010490860002010
:101470000749088008480088012101430648018087
:1014800001BD000000E100E01CED00E000E400E030
:1014900010200040FEFF0000002000402006002039
:1014A000C8060020C406002000040140242000409B
:1014B000FFFEFFFF1404014038B504000D000020BA
:1014C0005049487050484F49486001204D49487381
:1014D0004D484C49086102204A4948769020C00591
:1014E0004849C8610D20494908709020C005454908
:1014F00088620E20464908709020C0054149486323
:101500000020C0B2052807DA00213E4AC0B20C23F1
:101510004343D154401CF4E7384800688021490017
:101520000143364801603B483B4908803B483C4901
:10153000086001203B490880304800683A49014072
:101540002E4801601320FFF74FFE01211320FFF703
:1015500052FE36480460364805603648006801216E
:101560000143344801605520334908609020C0058C
:101570000068324901409020C005016000203049D8
:10158000086030480068304901432E4801602F4808
:101590000068042101432D4801600520FFF724FE67
:1015A00001210520FFF727FE0620FFF71DFE002181
:1015B0000620FFF720FE0720FFF716FE0121072077
:1015C000FFF719FE224800681F49014320480160C7
:1015D00031BD028A0120884010400841C0B27047E6
:1015E0001B4800681B4901431948016070471848AF
:1015F0000068012188431649086070471C100240AA
:101600004006002020060020001400484506002067
:1016100051060020CF070000282000403F060000B0
:101620002C2000400C200040FFFEFFFFC4060020DD
:10163000C80600201810024008000140FFFFFFC349
:101640000C0000480C040140076000000804014041
:1016500000040140056000000121C206D20E914045
:10166000504A11607047F0B540B2002821D54E4C69
:1016700040B20207120F083A9508042255434A4A1D
:1016800040B203071B0F083B9B0804267343D25844
:10169000FF238607B60F08277E43B3409A438B018A
:1016A000DBB28607B60F08277E43B340134363516E
:1016B0001AE03E4A40B2830804246343D258FF2311
:1016C0008407A40F08256C43A3409A438B01DBB227
:1016D0008407A40F08256C43A3401343334A40B248
:1016E000840804256C431351F0BD80B59020C005DB
:1016F0000068032101439020C00501602C48006868
:10170000012101432A4801602A482B4908602B48DF
:101710002B49086001202B490860A420C0002A49F9
:1017200008602948006801210143274801602748D3
:101730000068802189000143244801602448006832
:1017400080210906014322480160214800680028E1
:10175000FBD4802000061F49086003201E49086052
:1017600001201E4908601E481E490860184800688C
:1017700001210143164801601B480068C007FBD5E2
:101780000C20FFF769FF00210C20FFF76CFF1048C9
:101790000068042101430E48016001BD074800882C
:1017A0007047000000E100E01CED00E000E400E014
:1017B000141002404024014010000240CC060020DA
:1017C000140002400C0002400800024018100240C1
:1017D0000824014010240140142401402824014021
:1017E000032040000C240140002401409D21020000
:1017F0000AD5F446524200F007F80122D2071043FE
:10180000604700009D2102000AD002D4491E9218B0
:10181000FCD5C905100A1206524100D3012A4841DD
:10182000704730B405004D400122D20715404B18D7
:101830000418240E28D01B0E2FD0FF2C34D0FF2BE1
:1018400037D0E41A00020902104311434308480844
:10185000D10D1B1A02D2641EDB181B18DB18834241
:1018600000D31B1A4941F9D37F3426DDFE2C08DA58
:10187000E4054808C907194391416041284330BC39
:101880007047FF20C005F9E728001B0E03D0FF2B8F
:10189000F5D14902F3D0D043F1E7FF2C01D140024A
:1018A000F9D1FF20C005E9E74002F4D1FF2BF8D1C0
:1018B000F1E728004902E2D0EDE70B0200202442C4
:1018C000DCD15B129B1CD9D9D805D7E70122D207FE
:1018D00003004B402ED4431A01D2C01AC91830B4A9
:1018E0004B180418240E1B0E22D0FF2C20D0E31A14
:1018F000182B1DDC09021143C40D641E00021043A5
:1019000094461925ED1A0A00AA40D940451801D37A
:101910006D08A41CE405D209280A2D062A43654651
:10192000AA41604103181B0EFF2B01D3C00DC00557
:1019300030BC7047514006E05140CCE70122D2074D
:1019400003004B40F8D4431A03D2C01AC9185040C0
:10195000514030B44B18090211430418240E1B0ED9
:1019600040D0FF2C3AD025009D410BD31ED8C50D89
:101970004002401A0BD3ED050100400AC905914110
:101980006841D5E7C50D40024918401AD0D0012161
:101990004008491C0018FCD58C4204D36D1A000A7B
:1019A000ED054019C4E7E8051040C1E7182DBFDC7C
:1019B000AC1C0D00E140E5414D40012D4941C40DF5
:1019C00000021043451A01D46D199543641EE405C5
:1019D000280A2D069541604130BC7047FF2BA7D1E6
:1019E000D843A5E72442A3D10020A1E70CB40122EB
:1019F00012060318DA4207D84B18DA4204D802005C
:101A00000A43921802D288420CBC7047FCD0814233
:101A1000FAE7FEE70CB4012212060318DA4207D8EF
:101A20004B18DA4204D802000A43921802D28142CB
:101A30000CBC7047FCD088420CBC7047F8B5040061
:101A40000F0015001E00200000F009FB200000F030
:101A500016F8B8202550BC202650C020275000F092
:101A600076FB200000F0CAFBBC20205800688047AD
:101A7000200000F02BFB200000F030FEF1BD010043
:101A8000002070471CB504006946200001F0E8F80A
:101A900068460078C006C00EC0B2002803D00228F5
:101AA0000BD005D30EE06946200000F02DFE10E0BB
:101AB0006946200000F066FE0BE06946200000F059
:101AC00089FE06E06846017880200140200000F091
:101AD0006EFD002016BD70B504000E00F6B2002E9B
:101AE0002BD12000683005006078032834D1E868E5
:101AF000E969884210D2E869E968401AE861E86952
:101B0000E968884201D2EA6900E0EA6892B229698C
:101B1000200001F02FF91FE0B820205800690028AC
:101B200007D0A078032804D12000B82161580969A2
:101B30008847200001F02DF90EE0B8202058806978
:101B4000002809D0A078032806D13100C9B22000AE
:101B5000B822A25892699047002070BD70B5040069
:101B60000E00F6B2002E4CD120001830050060782F
:101B7000022835D1E868E96988420AD2E869E9684B
:101B8000401AE861EA6992B22969200001F0CCF8B4
:101B900046E0286AE96800F0C2F900290FD1286AF6
:101BA000E96888420BD3286A696A884207D2002212
:101BB0000021200001F0B8F80020686230E0B82071
:101BC0002058C068002807D0A078032804D120003E
:101BD000B8216158C9688847200001F0E8F81FE083
:101BE000607804281CD10F480068002818D00D48E0
:101BF0000168C9B2200000F04FFD002009490860CB
:101C00000EE0B82020584069002809D0A0780328A9
:101C100006D13100C9B22000B822A25852699047BB
:101C2000002070BDC006002010B504004023002233
:101C30000021200000F004FB8023002280212000EE
:101C400000F0FEFA002340220021200000F01FFBDC
:101C5000002340228021200000F019FB0120A07009
:101C6000E068C0B2BC21615849688847002010BDB7
:101C700010B50400BC20205800698047E078A070AF
:101C8000002010BD10B50400A078E0700420A07002
:101C9000BC202058C0688047002010BD10B504004B
:101CA000B8202058C069002804D02000B82161580D
:101CB000C9698847002010BD38B505000C00210017
:101CC000C9B22800B822AA5812689047BC202858E8
:101CD00080688047002032BD38B505000C00210027
:101CE000C9B22800B822AA5852689047002032BDD5
:101CF00038B504000D00A8235B00002281212000DC
:101D000000F09EFAB0235B0000220121200000F0C9
:101D100097FA032340228121200000F0B8FA032320
:101D200040220121200000F0B2FA4023614A012143
:101D3000200000F0ABFB002032BD38B504000D00E0
:101D40008121200000F04DFB0121200000F049FB23
:101D5000002032BDF8B506000D000020694608706D
:101D600000240027287860210140C9B200293CD016
:101D7000202970D16878022819D003280AD00928B0
:101D80001BD00A280CD00B2828D16888C0B24A4939
:101D9000086029E001224849300000F0B0FF23E04C
:101DA000688880B2000AC0B2444908601CE0012281
:101DB0004249300000F0A3FF16E0012040490870BE
:101DC0006888404908706846E9880170684602786A
:101DD00092B23849300000F0B6FF05E0290030002B
:101DE00000F056FF022037E035E06878062804D07E
:101DF0000A2826D00B282AD02DE0688880B2000A55
:101E000080B2222808D1E888312801DB302400E0A4
:101E1000EC882D4807000DE0688880B2000A80B287
:101E2000212807D129480700E8880A2801DB09246E
:101E300000E0EC88220092B23900300000F05FFF31
:101E400009E001222249300000F059FF03E06888D0
:101E5000C0B21F4908600020F2BD70B505000E0039
:101E60001400A878032806D1A4B2230032008121EF
:101E7000280000F045FB002070BD020029200880EA
:101E80001448704700B50200C9B2012902D10120EF
:101E9000114B1870002000BD38B504000D00054836
:101EA000FEF70CFD4023034A0121200000F0EEFA6A
:101EB000002032BDA0050020B0060020B40600209E
:101EC000D2060020D1060020283B00086A3B00080B
:101ED000AC060020583B00089600002001000020BE
:101EE000704780B5002100F071FF02BDF446002864
:101EF00004D4494200F013F84042604740420029B0
:101F000005D45FD000F00BF8404249426047494297
:101F100000F005F84942604703460B43E6D400222F
:101F2000030A8B420BD203098B4219D243088B421E
:101F30002ED2411A00D20146524110467047FF226C
:101F400009023FD012068B4205D3121209028B42BE
:101F500001D31212090203098B4219D300E0090AC6
:101F6000C3098B4201D3CB01C01A524183098B4272
:101F700001D38B01C01A524143098B4201D34B015B
:101F8000C01A524103098B4201D30B01C01A5241BE
:101F9000C3088B4201D3CB00C01A524183088B4245
:101FA00001D38B00C01A524143088B4201D34B002E
:101FB000C01A5241884200D3401A5241CFD2014642
:101FC0001046704708B500F0D7FF08BD0121C206D2
:101FD000D20E9140364A11607047F0B540B20028E9
:101FE00021D5344C40B20207120F083A950804225A
:101FF0005543304A40B203071B0F083B9B08042699
:102000007343D258FF238607B60F08277E43B34099
:102010009A438B01DBB28607B60F08277E43B34095
:10202000134363511AE0244A40B2830804246343F3
:10203000D258FF238407A40F08256C43A3409A437A
:102040008B01DBB28407A40F08256C43A340134324
:10205000194A40B2840804256C431351F0BD174956
:102060000968802212040A4314490A601349096866
:10207000802212050A4311490A6011490968114A70
:102080000A400F490A600E490968802292050A43F6
:102090000B490A600C49096840220A430A490A6050
:1020A0000949096820220A4307490A60704700006D
:1020B00000E100E01CED00E000E400E01C10024044
:1020C000046C0040FFFFFFCF006C004010B504001F
:1020D00001211F20FFF781FF1F20FFF777FF10BDB1
:1020E0000200122008802648704702000420088061
:1020F0002448704738B504000D002A0022492348BF
:1021000000F0CEFD204832BD38B504000D002A0095
:102110001D491F4800F0C4FD1B4832BD02001A20B3
:1021200008801C48704738B504000D002A00164985
:10213000194800F0B5FD144832BD38B504000D0053
:102140002A001149154800F0ABFD0F4832BD70B5AB
:10215000134800680400134800680600124800682D
:1021600005006419002C09D008221049200000F055
:1021700021F804220E49300000F01CF870BD000068
:10218000303C0008943C0008E0050020883C000832
:10219000643C000860000020703C0008443C0008DB
:1021A000ACF7FF1FB0F7FF1FB4F7FF1F620000205E
:1021B0007200002030B50023002423001C0015000D
:1021C000E4B2EDB2AC4218D2040F0A2C06D2040FCE
:1021D0003034DBB202255D434C5505E0040F373443
:1021E000DBB202255D434C5500010024DBB2022521
:1021F0005D434D196C705B1CE0E730BD10B5040009
:102200000120A070002020710020A0600120E0606B
:10221000012000F0B3FE002000F0B0FE002000F02E
:10222000B1FE002000F0B2FEBF20000203490860AA
:102230000248006880B200F0A1FE10BDA806002090
:1022400070B5040089B2080608D589B24806400E68
:102250002826704320181830050007E089B2480688
:10226000400E2826704320186830050092B2002ADC
:1022700004D10020A8721800A88006E00120A872EE
:102280001800E8801800000C2881002070BDF8B507
:1022900006000D001700ADB228060AD5ADB26806DB
:1022A000400E282148433018183004000120607087
:1022B00009E0ADB26806400E282148433018683066
:1022C000040000206070BFB2E76068460078E070EC
:1022D00028004006400E20702078002805D10020FC
:1022E00060620020E0610020206200202061002068
:1022F00060610020A0610020A070E078002805D077
:10230000022809D013D303280BD015E080218900BF
:10231000207800F047FE0FE00021207800F042FE18
:102320000AE0C021C900207800F03CFE04E08021D2
:10233000C900207800F036FEA07A002820D160780D
:1023400000280BD0A188207800F0E8FE207800F06B
:10235000CEFE2021207800F036FE40E0A1882078D3
:1023600000F0F0FEE16889B2207800F005FF2078E7
:1023700000F0A6FEC0218901207800F040FE2EE08A
:10238000207800F05AFE2289E188207800F034FF9E
:102390006078002812D1207800F092FE207800F0BA
:1023A000A6FE207800F07CFEC0218901207800F094
:1023B00026FE0021207800F006FE10E0207800F0D4
:1023C0007FFE207800F093FE207800F055FE00217B
:1023D000207800F0F8FD0021207800F010FE0020A9
:1023E000F2BD70B506000C00E4B2200608D5E4B2D8
:1023F0006006400E2821484330181830050007E0D9
:10240000E4B26006400E28214843301868300500C9
:10241000A87A002812D16878002807D0287800F020
:1024200066FE0021287800F0CEFD2DE0287800F02F
:1024300047FE0021287800F0E2FD25E068780028BA
:1024400011D1287800F03CFE287800F050FE287862
:1024500000F026FE0021287800F0D1FD0021287828
:1024600000F0B1FD10E0287800F02AFE287800F096
:102470003EFE287800F000FE0021287800F0A3FD41
:102480000021287800F0BBFD002070BDF8B582B0B7
:1024900007000E00150000200090F6B27006400EF6
:1024A00028214843381868300400256168460089AF
:1024B00060610020A061E0686169884206D2E0683E
:1024C000009060690099401A606103E060690090C3
:1024D00000206061A07A002805D1009989B2207897
:1024E00000F04AFE05E0009A92B26178207800F090
:1024F000ABFEC0218901207800F081FD0020FEBDE7
:10250000F9B581B00E001700002000900198F6B2D6
:102510007106490E282251434018183004007006F5
:10252000400E20702761029860610020A061E06881
:102530006169884206D2E068009060690099401A9B
:10254000606103E06069009000206061A07A00286B
:102550000BD1009A92B2A188206900F028FF00995F
:1025600089B2207800F0FDFD1BE00025009A92B2B0
:102570006178207800F068FE207800F00CFD4006BD
:1025800002D52089050001E0E0880500009A92B29A
:10259000290089B2206900F00AFF6178207800F0F4
:1025A000E1FE3021207800F00EFD0020FEBD70B568
:1025B00006000C00E4B2200608D5E4B26006400E26
:1025C0002821484330181830050005E0E4B22820DF
:1025D0006043301868300500287800281BD1444932
:1025E0002A7804235A43895889B2424A0A40100083
:1025F000010080204001484001001020484080B286
:102600003D4901433A482A7804235A438150012026
:10261000A870002011E06878002806D00120A8707A
:102620001021287800F0CFFC06E00120A87080215E
:102630004901287800F0E3FC002070BD70B5060069
:102640000C00E4B2200608D5E4B26006400E282152
:10265000484330181830050005E0E4B228206043F4
:102660003018683005006878002809D0287800F014
:102670003EFD3021287800F0A6FC0020A87009E07B
:10268000287800F01DFDC0218901287800F0B7FCF2
:102690000020A870002070BD70B5002201710023D9
:1026A0001A00022A14D2124B1400E4B204256C431F
:1026B0001B59124C1C401300DBB223430E4C1C432D
:1026C0000B4B1500EDB2042675435C51521CE8E734
:1026D000C9B280230B430A4C236070BD09490968C5
:1026E000802212020A4307490A6001218170704763
:1026F000005C0040BFBF0000808000008F8F0000A2
:102700004C5C0040585C004070B504000E00002591
:102710007078002820D0012828D0032821D005284F
:102720000BD0062804D0082811D009280AD022E0AE
:102730003100200000F0FDF821E03100200000F021
:1027400098F91CE03100200000F0BDF917E03100DD
:10275000200000F017FA12E03100200000F036FAF5
:102760000DE03100200000F04EFA08E031002000BA
:1027700000F05BFA03E03100200000F089FA280045
:10278000C0B270BD70B504000E000025A07803280B
:1027900019D1B088C0B2022810DA31002000B82266
:1027A000A258926890470500F08800280AD1EDB23F
:1027B000002D07D1200000F0ECFA03E031002000EA
:1027C00000F066FA03E03100200000F061FA280012
:1027D000C0B270BDF8B504000E00002000900027C4
:1027E000B08805007078002862D0012831D0032815
:1027F00000D09BE0A078022802D003280CD023E070
:10280000EDB2002D07D0EDB2802D04D02900C9B261
:102810002000FFF7CCFE1BE0708800280AD1EDB243
:10282000002D07D0EDB2802D04D02900C9B22000C0
:10283000FFF7BDFE31002000B822A25892689047F1
:10284000200000F0A6FA03E03100200000F020FA9A
:102850006CE0A078022802D003280CD023E0EDB26F
:10286000002D07D0EDB2802D04D02900C9B2200080
:10287000FFF79DFE1BE0708800280AD1EDB2002D05
:1028800007D0EDB2802D04D02900C9B22000FFF797
:10289000D5FE31002000B822A2589268904720004F
:1028A00000F077FA03E03100200000F0F1F93DE09C
:1028B000A078022802D003280CD032E0EDB2002D1F
:1028C00007D0EDB2802D04D02900C9B22000FFF757
:1028D0006EFE2AE0EDB228060ED5EDB26806400E77
:1028E000282148432018807E002802D00120009033
:1028F00011E0002000900EE028060CD4EDB2282054
:10290000684320186A21405C002802D00120009012
:1029100001E00020009002226946200000F0EFF95B
:1029200003E03100200000F0B3F9FFE73800C0B247
:10293000F2BD70B582B004000D00688880B2000A54
:10294000C0B2012808D0022815D003281ED00628BE
:1029500065D0072868D06CE06946E068C0B2C02244
:10296000A258126890470600E888402802D1082043
:102970006946088062E06946E068C0B2B822A258A1
:10298000126A90470600C420265057E06888C0B2FB
:10299000002808D0022818D00ED3042827D01DD331
:1029A00005282DD035E06946E068C0B2C022A258A3
:1029B00052689047060031E06946E068C0B2C02224
:1029C000A25892689047060028E06946E068C0B2C5
:1029D000C022A258D268904706001FE06946E0680E
:1029E000C0B2C022A25812699047060016E069469C
:1029F000E068C0B2C022A2585269904706000DE0BC
:102A00006946E068C0B2C022A258926990470600A9
:102A100004E02900200000F03BF929E00EE0290045
:102A2000200000F035F923E02900200000F030F903
:102A30001EE02900200000F02BF919E0684600880C
:102A4000002815D0E888002812D068460088E98858
:102A5000884204D2684600886946088002E0E88817
:102A600069460880684602883100200000F047F976
:102A700073BD70B504000E00B08800281ED1F08828
:102A800000281BD1B0784006400E0500A07803282E
:102A900004D13100200000F0FBF813E02571EDB205
:102AA00036480560200000F074F9EDB2002D02D028
:102AB0000220A07006E00120A07003E03100200099
:102AC00000F0E6F870BD38B504000D0068882C49A8
:102AD00008702B480078022804DB2900200000F051
:102AE000D7F84AE0A078022802D0032816D040E0A8
:102AF0002348007800280DD021480078207003205A
:102B0000A0701F4801782000FFF7D6F8200000F0E1
:102B100040F902E0200000F03CF92EE0184800786F
:102B200000280DD10220A0701548007820701448AC
:102B300001782000FFF7D0F8200000F02AF917E014
:102B40000F480078217888420FD021782000FFF7C5
:102B5000C3F80B4800782070094801782000FFF77F
:102B6000ABF8200000F015F902E0200000F011F9A8
:102B700003E02900200000F08BF831BDC0060020E2
:102B8000D306002038B504000D0000200090E8882E
:102B9000012804D02900200000F07AF815E0A07880
:102BA000022802D0032806D00BE00122694620004B
:102BB00000F0A5F809E001222100200000F09FF8B4
:102BC00003E02900200000F063F831BD38B50400AF
:102BD0000D0000200090A078801E01280ED8012052
:102BE0000090A068002803D00098022101430091C2
:102BF00002226946200000F082F803E0290020004C
:102C000000F046F831BD38B505000C006088012899
:102C10000AD10120A86021002800B822AA58926891
:102C20009047280000F0B5F831BD38B505000C001C
:102C3000A878801E01280ED8608801280AD10020BB
:102C4000A86021002800B822AA589268904728005E
:102C500000F09FF803E02100280000F019F831BDD2
:102C6000027C0A70427C4A70827CC37C1B02D218B0
:102C70004A80027D437D1B02D2188A80827DC37DFB
:102C80001B02D218CA80CA88C263012242707047F0
:102C900038B504000D0000212000FFF788FC31BD8D
:102CA000F8B504000D0017000026002C1BD02000F2
:102CB00000F01AF802214843801C38803888F6B2A8
:102CC000A855761C0320F6B2A855761C207800285B
:102CD00009D02078F6B2A855641C761C0020F6B204
:102CE000A855761CF2E7F1BD00B5010000200A7876
:102CF000002A02D0401C491CF9E7C0B200BDF8B55B
:102D000005000F0014000026A4B2AC63A4B26C63EB
:102D100002206870A4B223003A0000212800FFF7C7
:102D2000EFFB3000C0B2F2BDF8B507000E00140092
:102D30000025A4B22300320000213800FFF7E0FB99
:102D40002800C0B2F2BDF8B505000F00140000263F
:102D5000A4B288202C50A4B284202C500320687088
:102D600023009BB23A0000212800FFF78FFB3000C0
:102D7000C0B2F2BDF8B507000E0014000025230014
:102D80009BB2320000213800FFF780FB2800C0B260
:102D9000F2BD38B50500002404206870002300222D
:102DA00000212800FFF7ACFB2000C0B232BD38B5CF
:102DB000050000240520687000230022002128005F
:102DC000FFF764FB2000C0B232BDFEE7F8B5040097
:102DD0000E006000050EFF2D06D10025600201D116
:102DE000002C09D42000F2BD012D0DDB51482040FC
:102DF000FC24A40504437E3D002C0BD500F018FBF9
:102E0000212101604C48F2BD00F012FB222101603B
:102E10004A48F2BD20004A49FEF7E8FD06D280206C
:102E2000C0052100FDF7EAFE04006D1E45482100A3
:102E3000FEF74CFD0700FE2080052100FEF746FD51
:102E400001003800FEF7EDFC00900146FDF7D6FECC
:102E500004003D482100FDF7D1FE01003B48FEF78C
:102E600035FD2100FDF7CAFE01003948FEF72EFDB1
:102E70002100FDF7C3FE01003800FEF75FFD009959
:102E8000FDF7BCFE040028B2FEF7B0FC0500002EE2
:102E900010D130482900FDF7B1FE2100FEF74EFDAC
:102EA0003900FEF713FD04002B482900FDF7A6FEAC
:102EB00021003CE0012E23DB28483900FDF79EFE6F
:102EC000009027483900FDF799FE060025482900A3
:102ED000FDF794FE070021002348FDF78FFE010057
:102EE0003800FEF72BFD3100FEF7F0FC0099FEF7ED
:102EF000EDFC04001D482900FDF780FE210016E0CE
:102F00001B4E38003100FDF779FE0090390019485A
:102F1000FDF774FE070020003100FDF76FFE010091
:102F20003800FEF70BFD0099FEF7D0FC2900FEF7F4
:102F3000CDFCF2BDFFFF7F80FFFFFF7F000080FF21
:102F4000F304353F000080BF1502993E11AECC3E20
:102F5000C0AA2A3FE8E8FB331672313FD85BDE3E59
:102F60002837A932F43EA133D95BDE3E98209A3E41
:102F70003BAAB83F6070A5327047FEE780B238497F
:102F80000860704780B23849086070473349014093
:102F9000374A116070474049C0B204225043085874
:102FA00080B2704710B43C4AC0B204234343D258A5
:102FB0002C4B13400B439BB2374AC0B2042444430A
:102FC000135110BC704710B5334BC0B204244443B6
:102FD0001B59264C1C402200CB0602D513001022A0
:102FE0005A408B0602D5130020225A40214B13432E
:102FF0009BB2294AC0B204244443135110BD10B5FA
:10300000254BC0B2042444431B59244C1C402200CD
:10301000CB0403D51300802252015A408B0403D500
:103020001300802292015A40124B13439BB21A4A5A
:10303000C0B204244443135110BD1749C0B2042246
:10304000424389583D4A0A403D49114389B2124AD8
:10305000C0B204234343D15070470000F8FF000082
:10306000405C00408F890000445C0040BF8F00003E
:10307000505C0040808000000749C0B204224243F7
:1030800089582E4A0A406C491143034AC0B20423AE
:103090004343D15070470000005C00408FBF0000E8
:1030A0006749C0B2042242438958244A0A4063490E
:1030B0001143634AC0B204234343D1507047000018
:1030C00000B55F49C0B204224243895849040DD576
:1030D0005B49C0B2042242438958184A0A40564903
:1030E0001143574AC0B204234343D15000BD00B539
:1030F0005349C0B204224243895849060DD550496C
:10310000C0B20422424389580C4A0A404B49114339
:103110004B4AC0B204234343D15000BD494A126810
:1031200092B2C0B208234343D2187C4BD2180B0092
:103130009BB25B085B001380704700008F8F00001C
:10314000808100003F4A126892B2C0B20823434314
:10315000D218734BD2180B009BB25B085B00138034
:103160007047384A126892B2C0B208234343D2185B
:103170006C4BD2181180704710B5324B1B689BB254
:10318000C0B2082444431B196E4C1B191A0089B2A3
:103190003F290CDB0C00A4B264092300CC0600D14B
:1031A0005B1E9B02802424021C43148008E00C0058
:1031B000A4B264082300CC0700D55B1C9B021380DB
:1031C00010BD2049096889B2C0B2082250430818CE
:1031D0005449401800888005800D704719490968D6
:1031E00089B2C0B2082250430818564940180088D6
:1031F0008005800D7047000010B4124B1B689BB215
:10320000C0B2082444431B19444C1B190C00A4B23F
:10321000640864001C800B4B1B689BB2C0B208247E
:1032200044431B193E4C1B191400A4B264086400EB
:103230001C8010BC7047000080C00000C0800000EF
:10324000005C0040505C004030B5C9B2002923D179
:10325000654C2468A4B2C0B2082545436419314DB9
:103260006419230092B23F2A0CDB1500ADB26D0940
:103270002C00D50600D1641EA40280252D02254312
:103280001D8016E01500ADB26D082C00D50700D5E5
:10329000641CA4021C800CE0C9B2012909D1524B64
:1032A0001B689BB2C0B2082444431B191D4C1B1958
:1032B0001A80C9B2002923D14B4C2468A4B2C0B2F1
:1032C000082545436419544D6419230092B23F2ADE
:1032D0000CDB1500ADB26D092C00D50600D1641EC3
:1032E000A40280252D0225431D8016E01500ADB2F5
:1032F0006D082C00D50700D5641CA4021C800CE0CE
:10330000C9B2012909D1384B1B689BB2C0B208244D
:1033100044431B19404C1B191A8030BD006000400B
:1033200004600040026000402F49096889B2C0B2C1
:103330000822504308182D49401800888005800D48
:1033400070470000066000402749096889B2C0B292
:103350000822504308183049401800888005800D25
:103360007047000010B5C9B200290ED12B4AC0B277
:1033700004234343D2582A4B13402A4A1A43274B6B
:10338000C0B2042444431A5110E0C9B201290DD13E
:10339000224AC0B204234343D258214B1340224A4D
:1033A0001A431E4BC0B2042444431A5110BDF3B556
:1033B00092B21100491C491000916E46B6881B4F0D
:1033C000F6193500009E310000290BD00678330035
:1033D000401C067836021E4334002C80AD1C401C75
:1033E000491EF1E7F3BD0000505C00400260004060
:1033F00070B592B213005B1C5B1089B20B4E8E1934
:1034000035001C00002C06D02E880680AD1C401C08
:10341000401C641EF6E770BD06600040005C004082
:103420008F8F0000C080000080C00000006000405E
:1034300080B5024800F004F802BD000090000020B2
:103440007047FEE770B582B000250020694608800D
:10345000BC48006869464880000400D470E16846B2
:1034600040880007000F0600F6B2002E00D090E062
:1034700068464088C00617D4B348006880B2B34994
:103480000140B1480160B24804002078FFF799FE7E
:10349000A0612069A169401820610021AD48AE4AB1
:1034A000126852689047D3E7AC480400A648006809
:1034B0006946088068460088000515D52078FFF722
:1034C0008DFEA061A26992B2A188A548FFF790FF86
:1034D0009D480068A34901409B4801609D489E4962
:1034E000096889688847B3E7684600880004AFD553
:1034F000954800689B490140934801602078FFF798
:103500006DFEA061A069002809D0A26992B2A188CD
:103510002069FFF76DFF2069A16940182061002133
:103520008C488D4A1268126890478F49096889B2A1
:103530008E4A89180800E2683F2A0ED3E2685209D1
:103540001100227BD206D20E002A00D1491E890228
:10355000802212020A43028008E0E2685208110049
:10356000227BD20700D5491C89020180764909686F
:103570007F4A0A40100001008020400148400100BD
:103580008020800148407B49014389B26E48016038
:103590005EE76D48F6B204217143405869460880E1
:1035A00068460088000464D56748F6B20421714378
:1035B00040586C4901406448F6B20422724381507D
:1035C0006448F6B228217143401868300400A07A9C
:1035D00000280DD12078FFF701FE0500ADB2002DC7
:1035E0002AD02A0092B2A1882069FFF701FF23E0C8
:1035F0002078FFF7D0FC40040DD52078FFF794FE2B
:103600000500ADB2002D13D02A0092B2E1882069E6
:10361000FFF7EEFE0CE02078FFF796FE0500ADB256
:10362000002D05D02A0092B221892069FFF7E0FE23
:1036300000212078FFF796FEA069ADB24019A06185
:103640002069ADB2401920616069002803D0ADB295
:10365000E068854206D221783E483F4A12681268E7
:10366000904706E063699BB2226921783948FEF7EA
:103670000DFF68460088000600D4E9E63548F6B23A
:10368000282171434018183004002F48F6B2042155
:103690007143405880B22D4901402B48F6B20422B4
:1036A00072438150A07A00280DD12078FFF789FD60
:1036B000A061A06900282AD0A26992B2A1882069DD
:1036C000FFF775FE23E02078FFF765FC40060DD577
:1036D0002078FFF729FEA061A069002813D0A26915
:1036E00092B2E1882069FFF762FE0CE02078FFF7D4
:1036F0002BFEA061A069002805D0A26992B22189A1
:103700002069FFF754FE01212078FFF72BFE207877
:10371000FFF757FDA0612069A16940182061606929
:10372000002806D121780B480B4A1268526890474E
:103730008EE66369226921780648FEF7E1FE87E696
:1037400073BD0000445C0040005C00400F8F00002F
:10375000B0040020980400201C0000200005002078
:10376000A80400208F0F0000505C0040066000405D
:103770008FBF00008080000080B50020694608806F
:103780003F48006869460880684600888021090231
:1037900001403C48006889B2014201D0FFF752FE67
:1037A000684600888021C90001403648006889B217
:1037B00001420BD034483249086034483449096822
:1037C0000969884700213148FEF766FF684600888E
:1037D0008021890101402B48006889B2014202D052
:1037E0002C4827490860684600888021490101402B
:1037F0002448006889B201420AD02748204908605D
:1038000022482349096889698847002000F06DF83B
:10381000684600888021090101401A48006889B281
:10382000014209D01D48164908601848184909681E
:103830004969884700F038F8684600888021890087
:1038400001401048006889B2014207D014480C4971
:1038500008600E480E490968C968884768460088AC
:103860008021490001400748006889B2014205D023
:103870000C4803490860072000F037F801BD00003C
:10388000445C0040A8060020FFFB000098040020D4
:103890001C000020FFDF0000FFEF0000FFF700002A
:1038A000FFFD0000FFFE0000464909680800010016
:1038B0000820084380B2434908604249096808006B
:1038C00001000420084380B23E49086070473D492A
:1038D0000968080001003C48084080B23949086086
:1038E000BF210902374A1160704738B50400E4B2BD
:1038F000072C01D03548047034480078002808D0DF
:1039000002281DD013D304282ED020D305283BD065
:1039100053E02F480068002805D1FFF7D8FF0620A4
:103920002A49087002E005202849087048E0FFF79E
:10393000CEFF0420254908700120254908603FE09A
:1039400002202249487003202049087038E01F48AF
:103950004078401E1D4948701C484078002802D11C
:1039600004201A4908702BE016480068050028005A
:1039700010250543ADB213480560052013490870B2
:103980000A20124948701BE010484078401E0F4939
:1039900048700E48407800280ED10A48006805009B
:1039A00028000C4D0540ADB20648056006200749C9
:1039B000087000200649086002E0062003490870EC
:1039C00031BD0000405C0040FBFF0000B806002055
:1039D000BC060020EFFF00001948006801210143E8
:1039E00017480160174800681749014015480160F1
:1039F00013480068154901401148016010480068EB
:103A0000134901400E4801600E4800681149014009
:103A10000C480160104800680F2188430E49086077
:103A20000E4800680E4901400C4801600D480068CE
:103A3000012188430B49086000200B49086070474A
:103A400000100240041002400CB8FF08FFFFF6FE11
:103A5000FFFFFBFFFFFFC0FF2C10024030100240B1
:103A60002CFEFFFF3410024008100240704700B5E2
:103A7000FEE770477047704780B5FFF77DFE01BDD8
:103A800080B5FDF77EF901BD80B5FDF75BFC01BD9A
:103A900080B5FDF7B2FC01BD80B5FDF753FC01BD5B
:103AA00080B5FDF7EAFB01BD80B5FCF70BFE01BD5B
:103AB00070B40121002213E00468001D0C4202D002
:103AC0004D466D1E64192260241D1B1F042BFAD263
:103AD00025009E0701D52280AD1C0B4000D02A7026
:103AE0000368001D002BE7D170BC704730B501683A
:103AF0004118446862088A188368E40701D54C4677
:103B00001B19914201D10C3030BD0C7864B2491CB4
:103B10000D78491C1D705B1C002C02D5641CF9D16A
:103B2000EFE7641EF4D5ECE706FF000901A101856B
:103B3000010901150025017508953FB1828501092C
:103B400001918285020901150025017508953FB193
:103B500082850209019182C009022900010100C089
:103B600032090400000203000000092111010001D4
:103B700022300007058103400020070501034000B3
:103B80002000000010B5074979441831064C7C44E8
:103B9000163404E0081D0A68891888470100A1420C
:103BA000F8D110BD080000002400000005FFFFFF51
:103BB0003C020000980400200000000031FFFFFFDD
:103BC000F4000000FC00000000000020EA014800B2
:103BD000E202CA0248038A03AA03C800EA03CA032E
:103BE000280300026A02000000F00BF8002801D050
:103BF000FFF7C8FF0020C046C046FCF7AAFA00F055
:103C000002F80120704780B500F002F801BDFEE720
:103C10000746384600F002F8FBE7FEE780B5C046ED
:103C2000C046024A11001820ABBEFBE72600020086
:103C30001201000200000040830410A200020102F1
:103C40000301000048494420496E7465726661634F
:103C5000650000000148804701480047D939000845
:103C60007D3C0008436869702644697000000000CC
:103C700048494420436F6E6669670000C046C046ED
:103C8000C046C046FFF7B0FF436172644C616200FA
:103C90008040020104030904FEE7FEE7FEE7FEE7B9
:103CA000FEE7FEE7FEE7FEE7FEE7FEE7FEE7FEE7EC
:103CB000FEE7FEE71BD71A00085D1B0008851A0007
:103CC000089D1C0008291C0008851C0008711C00A8
:103CD00008FD000C20F11C00083B1D0008551D00CC
:103CE00008FC000BDD1E0008851E0008991E000858
:103CF000FC00217B1E0008E1200008EB20000809E1
:103D0000210008F52000081D210008272100083B9C
:103D10002100081A03E60013E70C0008E90C00086C
:103D2000EB0C0008ED0C0008EF0C0008FC0002484A
:023D3000000190
:0400000508003C7D36
:00000001FF
